:100000000C9463000C948B000C948B000C948B006C
:100010000C948B000C948B000C948B000C94810638
:100020000C948B000C948B000C948B000C948B0024
:100030000C948B000C948B000C948B000C948B0014
:100040000C9437060C948B000C9429070C9403072E
:100050000C948B000C948B000C948B000C948B00F4
:100060000C948B000C948B000000000024002700EF
:100070002A000000000023002600290000000008DC
:10008000000201000003040700000000000000005F
:10009000010204081020408001020408102001021F
:1000A0000408102000000000250028002B00040494
:1000B0000404040404040202020202020303030310
:1000C000030302005B0711241FBECFEFD8E0DEBFA1
:1000D000CDBF11E0A0E0B1E0ECE2F5E102C0059097
:1000E0000D92AA36B107D9F722E0AAE6B1E001C025
:1000F0001D92AE3CB207E1F710E0C3E6D0E004C0C9
:100100002197FE010E947A0AC236D107C9F70E94E0
:10011000C9070C94940A0C94000020912402309199
:1001200025022617370781F420912A0230912B02ED
:10013000232B29F490932B0280932A020895909305
:100140002D0280932C02089520912E0230912F02CF
:10015000232B29F490932F0280932E0208959093DD
:100160003102809330020895833081F028F4813089
:1001700099F08230A1F008958730A9F08830B9F065
:100180008430D1F4809180008F7D03C08091800005
:100190008F7780938000089584B58F7702C084B5EF
:1001A0008F7D84BD08958091B0008F7703C08091CA
:1001B000B0008F7D8093B0000895CF93DF93282FF8
:1001C00030E0F901E458FF4F8491F901E057FF4F07
:1001D000D491F901E255FF4FC491CC2391F08111E4
:1001E0000E94B400EC2FF0E0EE0FFF1FEE58FF4F1F
:1001F000A591B491EC91ED2381E090E021F480E0B1
:1002000002C080E090E0DF91CF9108951F93CF93DB
:10021000DF93282F30E0F901E458FF4F8491F90172
:10022000E057FF4FD491F901E255FF4FC491CC2321
:10023000C1F0162F81110E94B400EC2FF0E0EE0FF8
:10024000FF1FEC55FF4FA591B4919FB7F894111182
:1002500004C08C91D095D82302C0EC91DE2BDC93A6
:100260009FBFDF91CF911F910895CF93DF9390E0CF
:10027000FC01E057FF4F2491FC01E255FF4F8491B0
:10028000882361F190E0880F991FFC01E859FF4F26
:10029000C591D491FC01EC55FF4FA591B49161112A
:1002A00009C09FB7F8948881209582238883EC91B8
:1002B0002E230BC0623061F49FB7F8948881322FEF
:1002C000309583238883EC912E2B2C939FBF06C0FF
:1002D0008FB7F894E8812E2B28838FBFDF91CF91C1
:1002E0000895CF93DF93EC01862F96E4EFE0F1E0E1
:1002F000DE01149601900D929A95E1F76A837B8353
:1003000061E00E94350181E091E099838883EC01EE
:100310008881229661E00E94350181E0CF30D807C4
:10032000B9F7DF91CF9108954F925F926F927F92CC
:100330008F929F92AF92BF92CF92DF92EF92FF92F5
:100340000F931F93CF93DF9300D000D01F92CDB7B0
:10035000DEB78C012A013B01809100018D3021F034
:100360008F3F09F03DC205C0E2ECF0E024912D83FF
:1003700072C08DE080930001E2ECF0E084918D8307
:100380008F3F09F42DC2813009F441C038F1823029
:1003900009F061C01092B0001092B1008091B000DD
:1003A00082608093B0008091B10081608093B10041
:1003B000EBEBF0E0E491F0E0EE0FFF1FEC55FF4FA8
:1003C000859194919093740180937301EDE9F0E02D
:1003D000E491E093720122E02D83FDC114BC15BCB1
:1003E00084B5826084BD85B5816085BDEBEBF0E0AE
:1003F000E491F0E0EE0FFF1FEC55FF4F85919491D3
:10040000EDE9F0E0E491E09376011D82E4C1109201
:10041000800010928100809181008860809381002B
:1004200080918100816080938100EBEBF0E0E491AA
:10043000F0E0EE0FFF1FEC55FF4F85919491EDE931
:10044000F0E0E491E093750161E08DE00E943501F8
:1004500091E09D838AC08D8187FDC2C161E08DE0FE
:100460000E9435018D818D7F09F07FC04801A12C4C
:10047000B12C60E072E18AE790E0A50194010E944E
:10048000500A29833A834B835C8369017A0191E0A6
:10049000C91AD108E108F1082FEFC216D104E1040E
:1004A000F10409F008F44EC060E472E48FE090E0DB
:1004B000A50194010E94500A69017A0181E0C81ADD
:1004C000D108E108F1089D81923009F52FEFC2169D
:1004D000D104E104F10409F008F444C160E970EDCD
:1004E00083E090E0A50194010E94500A69017A011D
:1004F00081E0C81AD108E108F1089FEFC916D104BC
:10050000E104F10411F008F0BAC083E027C02FEF36
:10051000C216D104E104F104B9F0B0F068E478EE59
:1005200081E090E0A50194010E94500A69017A01DE
:1005300081E0C81AD108E108F1089D81992309F4E6
:1005400013C1DCC081E001C082E09D81911106C031
:1005500095B5987F892B85BD44C085E09091B10009
:10056000987F892B8093B1003CC04801A12CB12C0D
:1005700060E072E18AE790E0A50194010E94500AD0
:1005800069017A0181E0C81AD108E108F108C114B3
:10059000D10491E0E906F10488F068E478EE81E0A6
:1005A00090E0A50194010E94500A69017A0181E05E
:1005B000C81AD108E108F10883E001C081E09D81FB
:1005C000913079F490918100987F892B80938100FC
:1005D000411451046104710449F42FEF3FEFA90164
:1005E0002CC0411451046104710471F0D801AA0FA8
:1005F000BB1FA30192010E946F0A28EE33E040E086
:1006000050E00E942E0A03C02FEF3FEFA9018D8119
:10061000813099F0823019F18111E2C0C7BC20937A
:100620007F0130938001409381015093820180913A
:100630006E00826080936E00D3C0D0928900C09219
:10064000880020937B0130937C0140937D0150937F
:100650007E0180916F00826080936F00C1C0C09264
:10066000B300209377013093780140937901509340
:100670007A0180917000826080937000B1C068E45C
:1006800078EE81E090E0A50194010E94500A690192
:100690007A0191E0C91AD108E108F1082FEFC216DA
:1006A000D104E104F10441F138F164E274EF80E037
:1006B00090E0A50194010E94500A69017A0181E04D
:1006C000C81AD108E108F1089FEFC916D104E10466
:1006D000F10409F008F441CF62E17AE780E090E0AC
:1006E000A50194010E94500A69017A0181E0C81AAB
:1006F000D108E108F10819C084E030CF2FEFC2160D
:10070000D104E104F10409F008F463C062E17AE77E
:1007100080E090E0A50194010E94500A69017A01ED
:1007200091E0C91AD108E108F1088FEFC816D10489
:10073000E104F104A9F0A0F089819A81AB81BC8128
:100740002AE0B595A795979587952A95D1F76C01DD
:100750007D0121E0C21AD108E108F10887E0FECE50
:1007600086E0FCCE82E0FACE8FEFC816D104E10419
:10077000F10469F160F162E17AE780E090E0A501BF
:1007800094010E94500A69017A0191E0C91AD108C6
:10079000E108F1082FEFC216D104E104F104A9F039
:1007A000A0F089819A81AB81BC813AE0B595A7958B
:1007B000979587953A95D1F76C017D0121E0C21A92
:1007C000D108E108F10885E0C3CE84E0C1CE83E022
:1007D000BFCE84E0BACE61E08DE00E94350146CE06
:1007E0000F900F900F900F900F90DF91CF911F916E
:1007F0000F91FF90EF90DF90CF90BF90AF909F90C0
:100800008F907F906F905F904F9008953FB7F894CE
:1008100080916E0190916F01A0917001B091710172
:1008200026B5A89B05C02F3F19F00196A11DB11D4B
:100830003FBFBA2FA92F982F8827820F911DA11D86
:10084000B11DBC01CD0142E0660F771F881F991FC3
:100850004A95D1F708958F929F92AF92BF92CF920F
:10086000DF92EF92FF926B017C010E9406044B0124
:100870005C01C114D104E104F104F1F00E9406040A
:10088000DC01CB0188199909AA09BB09883E93406C
:10089000A105B10570F321E0C21AD108E108F10801
:1008A00088EE880E83E0981EA11CB11CC114D104EF
:1008B000E104F10419F7DDCFFF90EF90DF90CF90C6
:1008C000BF90AF909F908F900895CF92DF92EF925C
:1008D000FF920F931F93CF93DF936C017A018B01EB
:1008E000C0E0D0E0CE15DF0581F0D8016D918D011B
:1008F000D601ED91FC910190F081E02DC6010995A2
:10090000892B11F02196EECF7E01C701DF91CF91A7
:100910001F910F91FF90EF90DF90CF900895089571
:1009200080E090E00895FC01538D448D252F30E048
:10093000842F90E0821B930B541710F0CF960895EC
:1009400001970895FC01918D828D981761F0828D39
:10095000DF01A80FB11D5D968C91928D9F5F9F73F3
:10096000928F90E008958FEF9FEF0895FC01918D95
:10097000828D981731F0828DE80FF11D858D90E002
:1009800008958FEF9FEF0895FC01918D228D892F9F
:1009900090E0805C9F4F821B91098F739927089587
:1009A00083E891E00E94C40421E0892B09F420E04F
:1009B000822F0895FC01848DDF01A80FB11DA35A79
:1009C000BF4F2C91848D90E001968F739927848F6F
:1009D000A689B7892C93A089B1898C918370806492
:1009E0008C93938D848D981306C00288F389E02D33
:1009F00080818F7D80830895EF92FF920F931F93E4
:100A0000CF93DF93EC0181E0888F9B8D8C8D9813C1
:100A100005C0E889F989808185FD26C0F62E0B8DF9
:100A200010E00F5F1F4F0F731127E02E8C8DE8121F
:100A30000CC00FB607FCFACFE889F989808185FFE1
:100A4000F5CFCE010E94DA04F1CF8B8DFE01E80FC5
:100A5000F11DE35AFF4FF0829FB7F8940B8FEA899C
:100A6000FB89808180620AC09FB7F894EE89FF8974
:100A70006083E889F98980818370806480839FBF67
:100A800081E090E0DF91CF911F910F91FF90EF9067
:100A90000895CF93DF93EC01888D8823C9F0EA890C
:100AA000FB89808185FD05C0A889B9898C9186FD67
:100AB0000FC00FB607FCF5CF808185FFF2CFA88964
:100AC000B9898C9185FFEDCFCE010E94DA04E7CF82
:100AD000DF91CF91089580E090E0892B29F00E946A
:100AE000D00481110C9400000895FC0182810C94C3
:100AF0000601EF92FF920F931F93CF93DF937C0138
:100B00008B01C0E0D0E0D8016D918D01D701ED914E
:100B1000FC91EC0FFD1F80810E9406012296CE30D1
:100B2000D10589F7DF91CF911F910F91FF90EF9041
:100B30000895009769F0FC0101900020E9F73197D2
:100B4000AF01481B590BBC0183E891E00C9465048C
:100B500080E090E00895CF93DF930E949905EC0127
:100B600087E691E00E9499058C0F9D1FDF91CF9140
:100B700008958F929F92AF92BF92CF92DF92EF92A1
:100B8000FF920F931F93CF93DF93CDB7DEB7A1975B
:100B90000FB6F894DEBF0FBECDBF6C01990FEE0803
:100BA000FF08F7FE2BC06DE283E891E00E94FC0491
:100BB0008C0122273327A9012C193D094E095F0911
:100BC00019A2CE0181967C019AE0892E912CA12C4C
:100BD000B12CCA01B901A50194010E942E0A605DE1
:100BE000F70162937F01211531054105510589F710
:100BF000CF010E949905080F191F1EC0A701960179
:100C000019A28E010F5D1F4F8AE0C82ED12CE12C56
:100C1000F12CCA01B901A70196010E942E0A605D5C
:100C2000F80162938F01211531054105510589F7BE
:100C3000CF010E9499058C0187E691E00E949905F9
:100C4000800F911FA1960FB6F894DEBF0FBECDBFE7
:100C5000DF91CF911F910F91FF90EF90DF90CF9098
:100C6000BF90AF909F908F9008950E948F0A1F921F
:100C70000F920FB60F9211242F933F938F939F9350
:100C8000AF93BF938091200290912102A091220204
:100C9000B091230230916D0123E0230F2D3720F412
:100CA0000196A11DB11D05C026E8230F0296A11DC6
:100CB000B11D20936D018093200290932102A09397
:100CC0002202B093230280916E0190916F01A09156
:100CD0007001B09171010196A11DB11D80936E014B
:100CE00090936F01A0937001B0937101BF91AF9188
:100CF0009F918F913F912F910F900FBE0F901F905A
:100D000018951F920F920FB60F9211242F933F93B5
:100D10004F935F936F937F938F939F93AF93BF9303
:100D2000EF93FF938091770190917801A0917901E1
:100D3000B0917A01892B8A2B8B2B59F190917201FA
:100D4000E0917301F0917401808189278083809103
:100D5000770190917801A0917901B0917A011816EC
:100D600019061A061B060CF03DC080917701909180
:100D70007801A0917901B0917A010197A109B10997
:100D80008093770190937801A0937901B0937A01D1
:100D900029C080910001E2ECF0E0E4919FEF909394
:100DA0000001E130B9F098F0E230C9F490917000A0
:100DB0009D7F9093700091E09093B0009091B1006E
:100DC000987F94609093B1001092B30008C0109285
:100DD0006E0005C090916F009D7F90936F0060E062
:100DE0000E940601FF91EF91BF91AF919F918F916A
:100DF0007F916F915F914F913F912F910F900FBE17
:100E00000F901F9018951F920F920FB60F921124FA
:100E10002F933F934F935F936F937F938F939F9302
:100E2000AF93BF93EF93FF9383E891E00E94DA04BE
:100E3000FF91EF91BF91AF919F918F917F916F91B2
:100E40005F914F913F912F910F900FBE0F901F9088
:100E500018951F920F920FB60F9211242F938F9314
:100E60009F93EF93FF93E0919301F0919401808120
:100E7000E0919901F0919A0182FD12C090818091D8
:100E80009C018F5F8F7320919D01821751F0E0913B
:100E90009C01F0E0ED57FE4F958F80939C0101C0BF
:100EA0008081FF91EF919F918F912F910F900FBEB5
:100EB0000F901F901895E3E8F1E01382128288EEFC
:100EC00093E0A0E0B0E084839583A683B78389E5AF
:100ED00091E09183808385EC90E09587848784EC12
:100EE00090E09787868780EC90E0918B808B81ECF7
:100EF00090E0938B828B82EC90E0958B848B86ECD8
:100F000090E0978B868B118E128E138E148E69E073
:100F100070E084E892E00E9471016AE070E08AE388
:100F200092E00E9471018BE090E0909339028093EF
:100F3000380260E00E9435018CE090E09093370227
:100F40008093360260E00E943501E4E2F2E081E045
:100F500090E09183808382E090E093838283148287
:100F600015821782168211861086138612861586C0
:100F700014862FB7F8948091200290912102A091BD
:100F80002202B09123022FBF86879787A08BB18B57
:100F90000895789484B5826084BD84B5816084BDF1
:100FA00085B5826085BD85B5816085BD80916E0007
:100FB000816080936E001092810080918100826038
:100FC0008093810080918100816080938100809175
:100FD00080008160809380008091B1008460809364
:100FE000B1008091B00081608093B00080917A0060
:100FF000846080937A0080917A00826080937A0086
:1010000080917A00816080937A0080917A00806874
:1010100080937A001092C100E0919301F0919401C5
:1010200082E08083E0918F01F09190011082E09145
:101030009101F09192018FEC808310929B01E091DD
:101040009701F091980186E08083E0919501F091FD
:101050009601808180618083E0919501F0919601F5
:10106000808188608083E0919501F0919601808174
:1010700080688083E0919501F091960180818F7D59
:10108000808387E0F82E80916C01882379F168E8ED
:1010900072E084E892E00E9479056EE372E08AE3F0
:1010A00092E00E94790561E08AE392E00E94750572
:1010B00061E084E892E00E9475056CE271E080E0F6
:1010C00090E00E942B0460E084E892E00E947505A5
:1010D00060E08AE392E00E9475056CE271E080E0D6
:1010E00090E00E942B04CFCF811198C060E08AE38A
:1010F00092E00E94750561E084E892E00E94750527
:1011000080916A0190916B01F89EB001F99E700D7B
:10111000112468577D4F84E892E00E9479056AE0C7
:1011200070E080E090E00E942B0460E084E892E0B0
:101130000E94750561E08AE392E00E9475056EE306
:1011400072E08AE392E00E9479056AE070E080E054
:1011500090E00E942B04809136020E94DD008C01F9
:10116000809138020E94DD00EC012FB7F894809145
:10117000200290912102A0912202B09123022FBF60
:1011800040913202509133026091340270913502E5
:10119000841B950BA60BB70B853F9140A105B105AC
:1011A00080F010922B0210922A0210922D021092BF
:1011B0002C0210922F0210922E02109231021092E5
:1011C000300280912802209739F0811145C1609149
:1011D00024027091250206C0882349F060912602FE
:1011E0007091270281E090E00E948D0081E0909153
:1011F00029020115110539F0911176CF6091240271
:101200007091250207C0992309F46ECF60912602E0
:101210007091270282E090E00E948D002FB7F89431
:101220008091200290912102A0912202B09123028C
:101230002FBF8093320290933302A0933402B09375
:10124000350281E0CD2B09F480E08093280281E013
:10125000012B09F480E08093290280912A02909169
:101260002B028130910569F580912C0290912D021D
:10127000029751F580912E0290912F02019721F54E
:1012800080913002909131020297F1F410922B027A
:1012900010922A0210922D0210922C0210922F020C
:1012A00010922E021092310210923002C0916A0107
:1012B000D0916B01C930D10569F581E080936C0153
:1012C000C8C0892B09F412CF80912C0290912D0275
:1012D000892B09F40BCF80912E0290912F02892B3C
:1012E00009F404CF8091300290913102892B09F4E6
:1012F000FDCE10922B0210922A0210922D02109213
:101300002C0210922F0210922E0210923102109293
:101310003002ECCE46E950E060E070E080E296E01A
:101320000E94940166E970E080E090E00E942B0446
:1013300046E950E060E070E088EC95E00E9494019E
:1013400066E970E080E090E00E942B0446E950E0FE
:1013500060E070E084E795E00E94940166E970E047
:1013600080E090E00E942B044CE251E060E070E0ED
:101370008CED94E00E9494016CE271E080E090E0DA
:101380000E942B0446E950E060E070E086E295E0C0
:101390000E9494016CE271E080E090E00E942B04D6
:1013A00046E950E060E070E08EE393E00E94940133
:1013B00066E970E080E090E00E942B0446E950E08E
:1013C00060E070E080E793E00E94940166E970E0DD
:1013D00080E090E00E942B0446E950E060E070E07D
:1013E00086E194E00E9494016CE271E080E090E07C
:1013F0000E942B0446E950E060E070E080E793E053
:101400000E94940166E970E080E090E00E942B0465
:1014100046E950E060E070E086E194E00E949401CB
:1014200066E970E080E090E00E942B0446E950E01D
:1014300060E070E086E994E00E94940166E970E063
:1014400080E090E00E942B042196D0936B01C09322
:101450006A010E946B0517CE80E0C9CEA1E21A2E68
:10146000AA1BBB1BFD010DC0AA1FBB1FEE1FFF1F48
:10147000A217B307E407F50720F0A21BB30BE40B98
:10148000F50B661F771F881F991F1A9469F76095DF
:101490007095809590959B01AC01BD01CF01089599
:1014A000052E97FB1EF400940E94670A57FD07D093
:1014B0000E942E0A07FC03D04EF40C94670A509544
:1014C0004095309521953F4F4F4F5F4F0895909530
:1014D0008095709561957F4F8F4F9F4F08950E9423
:1014E000800AA59F900DB49F900DA49F800D911D23
:1014F00011240895EE0FFF1F0590F491E02D09943B
:10150000A29FB001B39FC001A39F700D811D112444
:10151000911DB29F700D811D1124911D089581E0D0
:0C15200090E0F8940C94940AF894FFCF2B
:10152C00FF0200030004000500060007000800018C
:10153C000101010101000001010000000001010096
:10154C000101000101010101000001000101000085
:10155C000101010001010001010100010101010172
:10156C000101010000000001010101010101010163
:10157C00010100010100000000FC04650493044912
:0A158C0005C404A204B6040D0A0011
:00000001FF
